:020000040000fa
:080000000001040000000000f3
:020000040000fa
:100200002f8120000e7922000e01880000000000de
:100210000c000700804620000100200011000700ac
:10022000000020000000e000020032000000020098
:10023000000000001c020200000000000040da0084
:100240000000fe004440a900000020000000e00083
:100250000300320000002000a00188004440a800f4
:100260000000060091018800800078000000eb008b
:1002700015003700e280400032a0b4009101ba00be
:10028000e280400032a0b4009102ba00e280400057
:1002900032a0b4000002eb00472bde00f507b200ed
:1002a000602ce10004003a000059eb008301e900f2
:1002b000fdff3e00040037006128e100010032002c
:1002c0000082eb00040007001101ba000200e00008
:1002d000e8ff3a00000006003159ba008301e90046
:1002e0000c0032002159ba008301e90008003200f5
:1002f0000400e00003003a00e280400032a0b400b5
:10030000f5ff370011d9ba008301e900faff3a007e
:100310008100e800e180400032a0b4000000060047
:100320000000fa00e402a900e422a900e442a900c6
:10033000e462a900e4c2a900011c200091407800f9
:10034000c0cfb30000c060000014a000c0e1b7003f
:10035000210e80000000280000806000016f200056
:1003600001007000200e8800c801a800c821a80064
:10037000c841a800c881a800c8a1a800c8c1a80099
:10038000ca41a900c11c20009140780000ccb300f4
:1003900000c07000cce1b700c11c20009140780083
:1003a00000ccb30000c06000a040b300cce1b700b7
:1003b000d201a800d221a800d241a80080022000ca
:1003c0001008880005e1a800012a2000914078006b
:1003d00000ceb30000c07000a0e2b700a062a90088
:1003e0000000eb0010158800512a20009140780091
:1003f00000ceb30000c060000014a000a5e2b7006a
:10040000412a20009140780000ccb30000c0600079
:100410005040b300a4e2b700300128004015880026
:100420000000eb0050158800a1e2a80090e0a900b0
:100430000080fa00000006000000fa00b8ff070084
:10044000c1e1a900c01220000b010700e602a800cc
:10045000803e200008010700e602a900e00120001c
:1004600005010700e622a800e001200002010700c4
:10047000c1e1a80010002000ff0007000000eb0011
:10048000b00e88000000eb00c00e88000000eb00fa
:10049000d00e880050c0b300d8000700004088008c
:1004a0000000370088c0bf0001c8b30001406000f1
:1004b0000004e00007003200b00e800060088800f1
:1004c000600880000000d1006008880011e1a800e9
:1004d00088e0a90084c0bf000044b2000004e0002e
:1004e0000a00320011e1a90084c0a900b0c0b30025
:1004f000c20007007040880071408000f027200093
:10050000808f500001003400c1e1a90084c0bf0009
:10051000684060000004e000070032000ac8bf0025
:100520000040e8000ae8b700604080000000e800f2
:10053000604088008460a900a1802000914078007c
:1005400000c2b30080cf5000030034001200070047
:100550000040eb000ae8b70061408000b02b2000ab
:10056000808f5000cfff3600804080000000e80000
:100570008040880081408000b0192000808f5000aa
:1005800002003400c0192000804088000000eb0009
:1005900060408800c3ff37001000fa000000eb0045
:1005a000700798006000b800500798006107980035
:1005b0006000b80030079800410798006000b8005c
:1005c000008fbe0050c0b3008c00070020079800c9
:1005d000014080002e009000010050000080e900e2
:1005e00000004000200798002e0090000000e0006e
:1005f00002003c000000eb002007980081408000d2
:100600002e00900000805000700798007e0090003f
:10061000cf80de004409dd00cc00de0081007100e7
:100620004400dd0050079800610798005e019000cb
:10063000ee019000f0792d0001002000800f5100a4
:10064000818f590004003400007a2d000100200041
:1006500050079800610798005e019000ee0190003d
:1006600000862200f1ff2f00800f5100818f59007a
:1006700004003c0000862200f1ff2f005007980084
:10068000610798007e0090006101b9001040800071
:1006900021408000020040008380480030408800f4
:1006a000414088003240800043408000f0792d00b6
:1006b00001002000800f5100818f59000400340098
:1006c000007a2d0001002000304088004140880061
:1006d000324080004340800000862200f1ff2f005e
:1006e000800f5100818f590004003c0000862200d9
:1006f000f1ff2f00304088004140880030408000ea
:100700004140800010408800214088003040800037
:100710004140800030079800410798003e0190005a
:10072000ce019000f0792d0001002000800f5100d3
:10073000818f590004003400007a2d000100200050
:1007400030079800410798003e019000ce019000cc
:1007500000862200f1ff2f00800f5100818f590089
:1007600004003c0000862200f1ff2f0030079800b3
:10077000410798005e009000ee0090003e0190005e
:10078000ce019000021f400003974800f0792d0031
:1007900001002000be0f1000ae8f180003003400cf
:1007a000007a2d0001002000008fbe00008622008c
:1007b000f1ff2f00be0f1000ae8f180003003c00a9
:1007c00000862200f1ff2f00008fbe001e00be0039
:1007d0004b09dd004500de0000007100c588de0029
:1007e000008fbe00ff3ffc001e007800b00e8800a6
:1007f0000000fc000080fa00000006000200fa0081
:10080000004f7800ff3ffc001e4078006f40600002
:100810006f416000612a20009140780000cfb30052
:1008200000c0600002407000a6e2b7001e407800e1
:100830006f4060006f416000712a20009140780095
:1008400000cfb30000c0600002407000a7e2b70014
:10085000a022a800a0c2bf00614060000004e00028
:10086000fcff3200a002a9000000fc000014800080
:100870000080fa00000006000600fa002007980039
:100880000000eb00000f78000c0037000000eb00c8
:1008900010079800040037000060fe001e00900062
:1008a0000000e800100798009e009000e0822600fb
:1008b000808f5000f8ff36001e0fe8002e009000d9
:1008c0009e0f1000f1ff39000080fa0000000600c2
:020000040000fa
:0200000401f009
:04000000f7ff000006
:020000040000fa
:0200000401f009
:04000400ff7f00007a
:020000040000fa
:0200000401f009
:04000800ffff0000f6
:020000040000fa
:100008007c0400007c0400007c0400007c040000e8
:100018007c0400007c0400007c0400007c040000d8
:100028007c0400007c0400007c0400007c040000c8
:100038007c0400007c0400007c0400007c040000b8
:100048007c0400007c0400007c0400007c040000a8
:100058007c0400007c0400007c0400007c04000098
:100068007c0400007c0400007c0400007c04000088
:100078007c0400007c0400007c0400007c04000078
:100088007c0400007c0400007c0400007c04000068
:100098007c0400007c0400007c0400007c04000058
:1000a8007c0400007c0400007c0400007c04000048
:1000b8007c0400007c0400007c0400007c04000038
:1000c8007c0400007c0400007c0400007c04000028
:1000d8007c0400007c0400007c0400007c04000018
:1000e8007c0400007c0400007c0400007c04000008
:0800f8007c0400007c04000000
:020000040000fa
:100108007c0400007c0400007c0400007c040000e7
:100118007c0400007c0400007c0400007c040000d7
:100128007c0400007c0400007c0400007c040000c7
:100138007c0400007c0400007c0400007c040000b7
:100148007c0400007c0400007c0400007c040000a7
:100158007c0400007c0400007c0400007c04000097
:100168007c0400007c0400007c0400007c04000087
:100178007c0400007c0400007c0400007c04000077
:100188007c0400007c0400007c0400007c04000067
:100198007c0400007c0400007c0400007c04000057
:1001a8007c0400007c0400007c0400007c04000047
:1001b8007c0400007c0400007c0400007c04000037
:1001c8007c0400007c0400007c0400007c04000027
:1001d8007c0400007c0400007c0400007c04000017
:1001e8007c0400007c0400007c0400007c04000007
:0801f8007c0400007c040000ff
:020000040000fa
:1008d0000a080000080000000200000000000000fc
:1008e0000000000086f20000000800000a0000007e
:0808f000000000000000000000
:020000040000fa
:0808f8000040da000000fe00e0
:00000001FF
